package net

import (
	"bitcoin/script"
	"bitcoin/util"
	"bytes"
	"encoding/hex"
	"io/ioutil"
	"log"
	"testing"
)

func TestCoinBaseTX(t *testing.T) {
	data, err := hex.DecodeString("010000000001010000000000000000000000000000000000000000000000000000000000000000ffffffff60036872081d2f5669614254432f4d696e65642062792031383539313737393733372f2cfabe6d6d980e95c6480064939d0a9f0bc8fa2318fc30fb5373cf2e1418f4830d7c69ab850200000000000000107a6e3608bad2c4e31e92165d8a5b0200ffffffff02a9845f4b000000001976a914536ffa992491508dca0354e52f32a3a7a679a53a88ac0000000000000000266a24aa21a9ed8719f26a8751c9ce44f62ae9903804f82f4c80f73d63dbcbe4772092037729960120000000000000000000000000000000000000000000000000000000000000000000000000")
	if err != nil {
		panic(err)
	}
	h := NewNetHeader(data)
	tx := &TX{}
	tx.Read(h)
	if !tx.IsCoinBase() {
		t.Errorf("coinbase tx check error")
	}
	if tx.HashID().String() != "c09b7a4be56da07d0e27fdaa465d9fc60f420e9216dbac70b714125729ca63fb" {
		t.Errorf("coinbase tx hashid error")
	}
}

func TestTXID(t *testing.T) {
	id := "246ab84ed7e0187e395c796c0d05fe083b7379b6c6ab29edc19626a039004bcf"
	data, err := hex.DecodeString("02000000027cb7fef1b9192c534cc539f2a1e949779d49438d0c860132cfb19d61cc655bc2010000006a473044022025bb9bd14ac3bf2b627b7d2f762f6322e8bc503779a25f2d0200b0d16f91f920022052847e5abb8ffd57738de52b41430de0b06d3363ff19ade8fcb8adadc7ef316a0121020eb301f186eca040fe127fff26ae692894c07586fd94bd26db5f77ae08ce4818feffffff43957c51908895ea828b8077661f2c74e347c84424e5761a1a5da4c7e10a1348010000006a47304402200468722bd21014cb8bf67bd975e1bd1ac7efa2158b5feeb15f12ff945f40486302202c54469049b4f22e6fe30790f2336ebe783a3a4eaef05b168fb38341a6f4ce870121020eb301f186eca040fe127fff26ae692894c07586fd94bd26db5f77ae08ce4818feffffff02800808000000000017a9148f0ac79dfd0e097aef933f7b54b65d5eee72dc4087b0f91e000000000017a91435e9c35af6c5958e6f5c80575afb94b2cedec0fa877d1c0900")
	if err != nil {
		panic(err)
	}
	h := NewNetHeader(data)
	tx := &TX{}
	tx.Read(h)
	if tx.HashID().String() != id {
		t.Errorf("make tx hashid error")
	}

}

func TestTXWNoWitness(t *testing.T) {
	data, err := hex.DecodeString("0100000001ec8abe57241834aab404a43288ce8c57061dfc47fe68312e43e2baddb01dfcfe010000006b483045022100b0b297b340fc5f42640b1dd9c96d58a4c19616045b7c921e0a0177eabec1f06402201f5efe9c400b1b5005f82ba57dd653abfcda4974bbabe00dc88e1e5b7c30c74b01210346aa8f3d640d829c7d6d40243d5e052a316ed5186bebed8da300e3a2e676ce3ffdffffff011ca0bf06000000001976a914975aa8ed4bd63ed0f388f40b4a3533425e42909f88ac00000000")
	if err != nil {
		panic(err)
	}
	h := NewNetHeader(data)
	tx := &TX{}
	tx.Read(h)
	if !h.IsEOF() {
		t.Errorf("read bytes remain")
	}
	if len(tx.Ins) != 1 {
		t.Errorf("txin error")
	}
	if len(tx.Outs) != 1 {
		t.Errorf("txout error")
	}
	if tx.LockTime != 0x0 {
		t.Errorf("lock time error")
	}
	oh := NewNetHeader()
	tx.Write(oh)
	if !bytes.Equal(data, oh.Payload) {
		t.Errorf("write tx error")
	}
}

func TestTXWithWitness(t *testing.T) {
	data, err := hex.DecodeString("02000000027cb7fef1b9192c534cc539f2a1e949779d49438d0c860132cfb19d61cc655bc2010000006a473044022025bb9bd14ac3bf2b627b7d2f762f6322e8bc503779a25f2d0200b0d16f91f920022052847e5abb8ffd57738de52b41430de0b06d3363ff19ade8fcb8adadc7ef316a0121020eb301f186eca040fe127fff26ae692894c07586fd94bd26db5f77ae08ce4818feffffff43957c51908895ea828b8077661f2c74e347c84424e5761a1a5da4c7e10a1348010000006a47304402200468722bd21014cb8bf67bd975e1bd1ac7efa2158b5feeb15f12ff945f40486302202c54469049b4f22e6fe30790f2336ebe783a3a4eaef05b168fb38341a6f4ce870121020eb301f186eca040fe127fff26ae692894c07586fd94bd26db5f77ae08ce4818feffffff02800808000000000017a9148f0ac79dfd0e097aef933f7b54b65d5eee72dc4087b0f91e000000000017a91435e9c35af6c5958e6f5c80575afb94b2cedec0fa877d1c0900")
	if err != nil {
		panic(err)
	}
	h := NewNetHeader(data)
	tx := &TX{}
	tx.Read(h)
	if !h.IsEOF() {
		t.Errorf("read bytes remain")
	}
	if len(tx.Ins) != 2 {
		t.Errorf("txin error")
	}
	if len(tx.Outs) != 2 {
		t.Errorf("txout error")
	}
	if tx.LockTime != 0x91c7d {
		t.Errorf("lock time error")
	}
	oh := NewNetHeader()
	tx.Write(oh)
	if !bytes.Equal(data, oh.Payload) {
		t.Errorf("write tx error")
	}
}

//0595dcce885d55287483900d91dee54cd85f9325bfd053c948801c32f3e3edee
func TestGetOutput(t *testing.T) {
	hs := "52210293baf0397588acc1aba056e868fd188dc0eea7554b45370aae862f9d2493a4c121020ab7517cf22a46b503ee8dcae7f9f109ec4cd19f0ab9d77c89c607554f3d5aa952ae"
	dd := util.HexToBytes(hs)
	log.Println(hex.EncodeToString(util.HASH160(dd)))
	s1 := "0100000002a6d9cb3fc5328b372695d64236a136a5aec3a333b3059e7f9d88cd5ec3c0e0ee01000000dc0048304502210080075aa29c42f8062f75cf6ab32004944417af974775581719008052c78719710220409fee54c6ddf2ca83e090077e443f95b427a63cc1ad87fca2625951b789d1c201493046022100b61d8f206d17efd6db32dad106f754f231ee8a16882929b1eb39a58bfd36b39e022100c62cff92dd6fb22b373025fc9b87044cf1b33502acc9de707e5f54d1c8a042a7014752210293baf0397588acc1aba056e868fd188dc0eea7554b45370aae862f9d2493a4c121020ab7517cf22a46b503ee8dcae7f9f109ec4cd19f0ab9d77c89c607554f3d5aa952aeffffffff3040c42258489d633033906125dc9999a8b0fadebde325db13c7fa6a0126f1b30e0100006b48304502203fe5f04a013512a4773414b25edc8c7915473dd5cf87bc73d28e1aaffdb4d14f022100e16156d526d1498f2cf5eb02d53e02f7fd5cf1dfdd25e4b032fdc5c59c9fd27b01210203635e5c184951e14fcfecc83b15960594f4fceec729e09a4a517b0a03a7f4b9ffffffff0240420f00000000001976a9147232ca33e0797405a512fa872934cd922c81296588ac671ab5220000000017a914622854939d571b63df97f47e8302b700ab2932b68700000000"
	data, err := hex.DecodeString(s1)
	if err != nil {
		panic(err)
	}
	h1 := NewNetHeader(data)
	tx1 := &TX{}
	tx1.Read(h1)
	idx := tx1.Ins[0].Output.Index
	//log.Println(tx1.Ins[0].Output.Hash, idx)
	script1 := tx1.Ins[0].Script
	log.Println(hex.EncodeToString(*script1))

	//ins[0] output tx
	s2 := "0100000002227bf9487f0716e9bcf81d42343b9d31435f8cf24fbcc766ebb4b7cf7213d9aa01000000db0048304502201c719cb0c5030845ae4fcaf880ba8c9d9bc33a4048d4bc61f6c8768d34722235022100e97231f5fc703ffe22a1c3e375639804a452ccf0fcff8b153e12da66e82d79980148304502206dc0723ef31a7a24b130ccae2e0385dac01d30fec30ea99e70e280502213ef30022100aee1330040fb75b91ec58a8bf2d8191a195f610f5823c46411a4c34f03e4c938014752210293baf0397588acc1aba056e868fd188dc0eea7554b45370aae862f9d2493a4c121020ab7517cf22a46b503ee8dcae7f9f109ec4cd19f0ab9d77c89c607554f3d5aa952aeffffffff3040c42258489d633033906125dc9999a8b0fadebde325db13c7fa6a0126f1b3580000006a473044022022f21d6bbd933ff799586e482f91e682007eb4ed4d6f9d4cb3b3e9e1a82b3340022073f50be36c0a37541cabd84c3defb43c9a6e2cc0dfe3757d40ac4aeef3c02e2701210203635e5c184951e14fcfecc83b15960594f4fceec729e09a4a517b0a03a7f4b9ffffffff0260216000000000001976a914e46841d71f89d9a1b97dfe086bcd92615cda5ae688aca75cc4220000000017a914622854939d571b63df97f47e8302b700ab2932b68700000000"
	data, err = hex.DecodeString(s2)
	if err != nil {
		panic(err)
	}
	h2 := NewNetHeader(data)
	tx2 := &TX{}
	tx2.Read(h2)
	//log.Println(tx2.HashID())
	script2 := tx2.Outs[idx].Script
	log.Println(hex.EncodeToString(*script2))
}

func TestBlockData(t *testing.T) {
	blockId := "0000000000000000002a2451180749294cd74058e0a0dd37cc19ad0ee66e77ff"
	data, err := ioutil.ReadFile("../dat/block.dat")
	if err != nil {
		panic(err)
	}
	h := NewNetHeader(data)
	m := NewMsgBlock()
	m.Read(h)
	if m.HashID().String() != blockId {
		t.Errorf("block hashid error")
	}
	for _, v := range m.Txs {
		if v.HashID().String() == "5b0d4175e73cc0e3c705f93269eb1714c269ad1c2ad11eff39f7a9fad180ed2e" {
			log.Println(v.Ins[0].Output.Index, v.Ins[0].Output.Hash)
			stack := script.NewStack()
			v.Ins[0].Script.Eval(stack, nil, 0, script.SIG_VER_BASE)
		}
	}
}
